{
    "_format": "hh-sol-artifact-1",
    "contractName": "DegenHouseFlip",
    "sourceName": "contracts/DegenFlip.sol",
    "abi": [
        {
            "inputs": [
                {
                    "internalType": "uint256",
                    "name": "_maxBetLimit",
                    "type": "uint256"
                }
            ],
            "stateMutability": "nonpayable",
            "type": "constructor"
        },
        {
            "anonymous": false,
            "inputs": [
                {
                    "indexed": true,
                    "internalType": "address",
                    "name": "bettor",
                    "type": "address"
                },
                {
                    "indexed": false,
                    "internalType": "uint256",
                    "name": "amount",
                    "type": "uint256"
                },
                {
                    "indexed": false,
                    "internalType": "bool",
                    "name": "hasWon",
                    "type": "bool"
                },
                {
                    "indexed": false,
                    "internalType": "uint256",
                    "name": "result",
                    "type": "uint256"
                }
            ],
            "name": "BetFinalized",
            "type": "event"
        },
        {
            "anonymous": false,
            "inputs": [
                {
                    "indexed": true,
                    "internalType": "address",
                    "name": "bettor",
                    "type": "address"
                },
                {
                    "indexed": false,
                    "internalType": "uint256",
                    "name": "amount",
                    "type": "uint256"
                }
            ],
            "name": "BetPlaced",
            "type": "event"
        },
        {
            "anonymous": false,
            "inputs": [
                {
                    "indexed": false,
                    "internalType": "uint256",
                    "name": "newMaxBetLimit",
                    "type": "uint256"
                }
            ],
            "name": "MaxBetLimitUpdated",
            "type": "event"
        },
        {
            "anonymous": false,
            "inputs": [
                {
                    "indexed": true,
                    "internalType": "address",
                    "name": "sponsor",
                    "type": "address"
                },
                {
                    "indexed": false,
                    "internalType": "uint256",
                    "name": "amount",
                    "type": "uint256"
                }
            ],
            "name": "Sponsorship",
            "type": "event"
        },
        {
            "anonymous": false,
            "inputs": [
                {
                    "indexed": true,
                    "internalType": "address",
                    "name": "owner",
                    "type": "address"
                },
                {
                    "indexed": false,
                    "internalType": "uint256",
                    "name": "amount",
                    "type": "uint256"
                }
            ],
            "name": "Withdrawal",
            "type": "event"
        },
        {
            "inputs": [
                {
                    "internalType": "address",
                    "name": "",
                    "type": "address"
                }
            ],
            "name": "activeBet",
            "outputs": [
                {
                    "internalType": "uint256",
                    "name": "amount",
                    "type": "uint256"
                },
                {
                    "internalType": "bool",
                    "name": "hasWon",
                    "type": "bool"
                },
                {
                    "internalType": "address",
                    "name": "bettor",
                    "type": "address"
                },
                {
                    "internalType": "uint256",
                    "name": "playerChoice",
                    "type": "uint256"
                },
                {
                    "internalType": "uint256",
                    "name": "multiplier",
                    "type": "uint256"
                },
                {
                    "internalType": "string",
                    "name": "seed",
                    "type": "string"
                },
                {
                    "internalType": "uint256",
                    "name": "result",
                    "type": "uint256"
                }
            ],
            "stateMutability": "view",
            "type": "function"
        },
        {
            "inputs": [
                {
                    "internalType": "uint256",
                    "name": "",
                    "type": "uint256"
                }
            ],
            "name": "betHistory",
            "outputs": [
                {
                    "internalType": "uint256",
                    "name": "amount",
                    "type": "uint256"
                },
                {
                    "internalType": "bool",
                    "name": "hasWon",
                    "type": "bool"
                },
                {
                    "internalType": "address",
                    "name": "bettor",
                    "type": "address"
                },
                {
                    "internalType": "uint256",
                    "name": "playerChoice",
                    "type": "uint256"
                },
                {
                    "internalType": "uint256",
                    "name": "multiplier",
                    "type": "uint256"
                },
                {
                    "internalType": "string",
                    "name": "seed",
                    "type": "string"
                },
                {
                    "internalType": "uint256",
                    "name": "result",
                    "type": "uint256"
                }
            ],
            "stateMutability": "view",
            "type": "function"
        },
        {
            "inputs": [],
            "name": "contractBalance",
            "outputs": [
                {
                    "internalType": "uint256",
                    "name": "",
                    "type": "uint256"
                }
            ],
            "stateMutability": "view",
            "type": "function"
        },
        {
            "inputs": [],
            "name": "deposit",
            "outputs": [],
            "stateMutability": "payable",
            "type": "function"
        },
        {
            "inputs": [
                {
                    "internalType": "address",
                    "name": "bettor",
                    "type": "address"
                },
                {
                    "internalType": "uint256",
                    "name": "playerChoice",
                    "type": "uint256"
                },
                {
                    "internalType": "uint256",
                    "name": "multiplier",
                    "type": "uint256"
                },
                {
                    "internalType": "string",
                    "name": "seed",
                    "type": "string"
                },
                {
                    "internalType": "uint256",
                    "name": "result",
                    "type": "uint256"
                }
            ],
            "name": "finalizeBet",
            "outputs": [],
            "stateMutability": "nonpayable",
            "type": "function"
        },
        {
            "inputs": [],
            "name": "getSponsors",
            "outputs": [
                {
                    "internalType": "address[]",
                    "name": "",
                    "type": "address[]"
                }
            ],
            "stateMutability": "view",
            "type": "function"
        },
        {
            "inputs": [],
            "name": "maxBetLimit",
            "outputs": [
                {
                    "internalType": "uint256",
                    "name": "",
                    "type": "uint256"
                }
            ],
            "stateMutability": "view",
            "type": "function"
        },
        {
            "inputs": [],
            "name": "owner",
            "outputs": [
                {
                    "internalType": "address",
                    "name": "",
                    "type": "address"
                }
            ],
            "stateMutability": "view",
            "type": "function"
        },
        {
            "inputs": [
                {
                    "internalType": "uint256",
                    "name": "newMaxBetLimit",
                    "type": "uint256"
                }
            ],
            "name": "setMaxBetLimit",
            "outputs": [],
            "stateMutability": "nonpayable",
            "type": "function"
        },
        {
            "inputs": [],
            "name": "sponsor",
            "outputs": [],
            "stateMutability": "payable",
            "type": "function"
        },
        {
            "inputs": [
                {
                    "internalType": "uint256",
                    "name": "",
                    "type": "uint256"
                }
            ],
            "name": "sponsors",
            "outputs": [
                {
                    "internalType": "address",
                    "name": "",
                    "type": "address"
                }
            ],
            "stateMutability": "view",
            "type": "function"
        },
        {
            "inputs": [
                {
                    "internalType": "address payable",
                    "name": "newOwner",
                    "type": "address"
                }
            ],
            "name": "transferOwnership",
            "outputs": [],
            "stateMutability": "nonpayable",
            "type": "function"
        },
        {
            "inputs": [
                {
                    "internalType": "uint256",
                    "name": "amount",
                    "type": "uint256"
                }
            ],
            "name": "withdraw",
            "outputs": [],
            "stateMutability": "nonpayable",
            "type": "function"
        }
    ],
    "bytecode": "0x60806040523480156200001157600080fd5b5060405162002267380380620022678339818101604052810190620000379190620000dc565b336000806101000a81548173ffffffffffffffffffffffffffffffffffffffff021916908373ffffffffffffffffffffffffffffffffffffffff160217905550336000806101000a81548173ffffffffffffffffffffffffffffffffffffffff021916908373ffffffffffffffffffffffffffffffffffffffff16021790555080600581905550506200012c565b600081519050620000d68162000112565b92915050565b600060208284031215620000ef57600080fd5b6000620000ff84828501620000c5565b91505092915050565b6000819050919050565b6200011d8162000108565b81146200012957600080fd5b50565b61212b806200013c6000396000f3fe6080604052600436106100c25760003560e01c806390b5c06d1161007f578063d3ea738211610059578063d3ea738214610248578063e59d93db14610271578063ea5a4e5f1461029a578063f2fde38b146102c5576100c2565b806390b5c06d146101be57806393066b4c14610201578063d0e30db01461023e576100c2565b80631c7ff1ba146100c75780632e1a7d4d1461010a57806377c93662146101335780638b7afe2e1461013d5780638ce900bd146101685780638da5cb5b14610193575b600080fd5b3480156100d357600080fd5b506100ee60048036038101906100e99190611636565b6102ee565b6040516101019796959493929190611c92565b60405180910390f35b34801561011657600080fd5b50610131600480360381019061012c9190611717565b6103e5565b005b61013b610610565b005b34801561014957600080fd5b50610152610721565b60405161015f9190611c77565b60405180910390f35b34801561017457600080fd5b5061017d610727565b60405161018a9190611b33565b60405180910390f35b34801561019f57600080fd5b506101a86107b5565b6040516101b59190611b18565b60405180910390f35b3480156101ca57600080fd5b506101e560048036038101906101e09190611717565b6107d9565b6040516101f89796959493929190611c92565b60405180910390f35b34801561020d57600080fd5b5061022860048036038101906102239190611717565b6108e0565b6040516102359190611b18565b60405180910390f35b61024661091f565b005b34801561025457600080fd5b5061026f600480360381019061026a9190611717565b610b27565b005b34801561027d57600080fd5b5061029860048036038101906102939190611688565b610bf6565b005b3480156102a657600080fd5b506102af6110da565b6040516102bc9190611c77565b60405180910390f35b3480156102d157600080fd5b506102ec60048036038101906102e7919061165f565b6110e0565b005b60016020528060005260406000206000915090508060000154908060010160009054906101000a900460ff16908060010160019054906101000a900473ffffffffffffffffffffffffffffffffffffffff169080600201549080600301549080600401805461035c90611fb1565b80601f016020809104026020016040519081016040528092919081815260200182805461038890611fb1565b80156103d55780601f106103aa576101008083540402835291602001916103d5565b820191906000526020600020905b8154815290600101906020018083116103b857829003601f168201915b5050505050908060050154905087565b60008054906101000a900473ffffffffffffffffffffffffffffffffffffffff1673ffffffffffffffffffffffffffffffffffffffff163373ffffffffffffffffffffffffffffffffffffffff1614610473576040517f08c379a000000000000000000000000000000000000000000000000000000000815260040161046a90611b77565b60405180910390fd5b478111156104b6576040517f08c379a00000000000000000000000000000000000000000000000000000000081526004016104ad90611bb7565b60405180910390fd5b60008060009054906101000a900473ffffffffffffffffffffffffffffffffffffffff1673ffffffffffffffffffffffffffffffffffffffff16826040516104fd90611b03565b60006040518083038185875af1925050503d806000811461053a576040519150601f19603f3d011682016040523d82523d6000602084013e61053f565b606091505b5050905080610583576040517f08c379a000000000000000000000000000000000000000000000000000000000815260040161057a90611c17565b60405180910390fd5b610598826003546111eb90919063ffffffff16565b60038190555060008054906101000a900473ffffffffffffffffffffffffffffffffffffffff1673ffffffffffffffffffffffffffffffffffffffff167f7fcf532c15f0a6db0bd6d0e038bea71d30d808c7d98cb3bf7268a95bf5081b65836040516106049190611c77565b60405180910390a25050565b60003411610653576040517f08c379a000000000000000000000000000000000000000000000000000000000815260040161064a90611bf7565b60405180910390fd5b6106683460035461123590919063ffffffff16565b6003819055506004339080600181540180825580915050600190039060005260206000200160009091909190916101000a81548173ffffffffffffffffffffffffffffffffffffffff021916908373ffffffffffffffffffffffffffffffffffffffff1602179055503373ffffffffffffffffffffffffffffffffffffffff167fecc0dd813cd94f4f414ba320d3e5c309d9054f6337a6658a9ea091b9bbdddebb346040516107179190611c77565b60405180910390a2565b60035481565b606060048054806020026020016040519081016040528092919081815260200182805480156107ab57602002820191906000526020600020905b8160009054906101000a900473ffffffffffffffffffffffffffffffffffffffff1673ffffffffffffffffffffffffffffffffffffffff1681526020019060010190808311610761575b5050505050905090565b60008054906101000a900473ffffffffffffffffffffffffffffffffffffffff1681565b600281815481106107e957600080fd5b90600052602060002090600602016000915090508060000154908060010160009054906101000a900460ff16908060010160019054906101000a900473ffffffffffffffffffffffffffffffffffffffff169080600201549080600301549080600401805461085790611fb1565b80601f016020809104026020016040519081016040528092919081815260200182805461088390611fb1565b80156108d05780601f106108a5576101008083540402835291602001916108d0565b820191906000526020600020905b8154815290600101906020018083116108b357829003601f168201915b5050505050908060050154905087565b600481815481106108f057600080fd5b906000526020600020016000915054906101000a900473ffffffffffffffffffffffffffffffffffffffff1681565b60003411801561093157506005543411155b610970576040517f08c379a000000000000000000000000000000000000000000000000000000000815260040161096790611c37565b60405180910390fd5b6040518060e001604052803481526020016000151581526020013373ffffffffffffffffffffffffffffffffffffffff16815260200160008152602001600081526020016040518060200160405280600081525081526020016000815250600160003373ffffffffffffffffffffffffffffffffffffffff1673ffffffffffffffffffffffffffffffffffffffff1681526020019081526020016000206000820151816000015560208201518160010160006101000a81548160ff02191690831515021790555060408201518160010160016101000a81548173ffffffffffffffffffffffffffffffffffffffff021916908373ffffffffffffffffffffffffffffffffffffffff160217905550606082015181600201556080820151816003015560a0820151816004019080519060200190610aae92919061141f565b5060c08201518160050155905050610ad13460035461123590919063ffffffff16565b6003819055503373ffffffffffffffffffffffffffffffffffffffff167f43e08d78302cdf9c94e1ffd293c2a3696139ee41cf3199b6f5eed9c7f6cc609034604051610b1d9190611c77565b60405180910390a2565b60008054906101000a900473ffffffffffffffffffffffffffffffffffffffff1673ffffffffffffffffffffffffffffffffffffffff163373ffffffffffffffffffffffffffffffffffffffff1614610bb5576040517f08c379a0000000000000000000000000000000000000000000000000000000008152600401610bac90611b77565b60405180910390fd5b806005819055507facb6b03ed430de4014ccf3955501039b817c3668cd75155d69df94a0d463346481604051610beb9190611c77565b60405180910390a150565b60008054906101000a900473ffffffffffffffffffffffffffffffffffffffff1673ffffffffffffffffffffffffffffffffffffffff163373ffffffffffffffffffffffffffffffffffffffff1614610c84576040517f08c379a0000000000000000000000000000000000000000000000000000000008152600401610c7b90611b77565b60405180910390fd5b6000600160008773ffffffffffffffffffffffffffffffffffffffff1673ffffffffffffffffffffffffffffffffffffffff16815260200190815260200160002090506000816000015411610d0e576040517f08c379a0000000000000000000000000000000000000000000000000000000008152600401610d0590611c57565b60405180910390fd5b84816002018190555083816003018190555082816004019080519060200190610d3892919061141f565b508181600501819055508185148160010160006101000a81548160ff0219169083151502179055506000610d8c6064610d7e87856000015461129390919063ffffffff16565b61130e90919063ffffffff16565b90508160010160009054906101000a900460ff1615610eb357806003541015610dea576040517f08c379a0000000000000000000000000000000000000000000000000000000008152600401610de190611bb7565b60405180910390fd5b60008773ffffffffffffffffffffffffffffffffffffffff1682604051610e1090611b03565b60006040518083038185875af1925050503d8060008114610e4d576040519150601f19603f3d011682016040523d82523d6000602084013e610e52565b606091505b5050905080610e96576040517f08c379a0000000000000000000000000000000000000000000000000000000008152600401610e8d90611c17565b60405180910390fd5b610eab826003546111eb90919063ffffffff16565b600381905550505b6002829080600181540180825580915050600190039060005260206000209060060201600090919091909150600082015481600001556001820160009054906101000a900460ff168160010160006101000a81548160ff0219169083151502179055506001820160019054906101000a900473ffffffffffffffffffffffffffffffffffffffff168160010160016101000a81548173ffffffffffffffffffffffffffffffffffffffff021916908373ffffffffffffffffffffffffffffffffffffffff16021790555060028201548160020155600382015481600301556004820181600401908054610fa590611fb1565b610fb09291906114a5565b50600582015481600501555050600160008873ffffffffffffffffffffffffffffffffffffffff1673ffffffffffffffffffffffffffffffffffffffff1681526020019081526020016000206000808201600090556001820160006101000a81549060ff02191690556001820160016101000a81549073ffffffffffffffffffffffffffffffffffffffff0219169055600282016000905560038201600090556004820160006110609190611532565b600582016000905550508673ffffffffffffffffffffffffffffffffffffffff167f2511251a09ab2b82cf52e9dff34a45aee67099e0351d6644b679fc7c13bb9d8d83600001548460010160009054906101000a900460ff16866040516110c993929190611d08565b60405180910390a250505050505050565b60055481565b60008054906101000a900473ffffffffffffffffffffffffffffffffffffffff1673ffffffffffffffffffffffffffffffffffffffff163373ffffffffffffffffffffffffffffffffffffffff161461116e576040517f08c379a000000000000000000000000000000000000000000000000000000000815260040161116590611b77565b60405180910390fd5b600073ffffffffffffffffffffffffffffffffffffffff168173ffffffffffffffffffffffffffffffffffffffff1614156111a857600080fd5b806000806101000a81548173ffffffffffffffffffffffffffffffffffffffff021916908373ffffffffffffffffffffffffffffffffffffffff16021790555050565b600061122d83836040518060400160405280601e81526020017f536166654d6174683a207375627472616374696f6e206f766572666c6f770000815250611358565b905092915050565b60008082846112449190611e00565b905083811015611289576040517f08c379a000000000000000000000000000000000000000000000000000000000815260040161128090611b97565b60405180910390fd5b8091505092915050565b6000808314156112a65760009050611308565b600082846112b49190611e87565b90508284826112c39190611e56565b14611303576040517f08c379a00000000000000000000000000000000000000000000000000000000081526004016112fa90611bd7565b60405180910390fd5b809150505b92915050565b600061135083836040518060400160405280601a81526020017f536166654d6174683a206469766973696f6e206279207a65726f0000000000008152506113bc565b905092915050565b60008383111582906113a0576040517f08c379a00000000000000000000000000000000000000000000000000000000081526004016113979190611b55565b60405180910390fd5b50600083856113af9190611ee1565b9050809150509392505050565b60008083118290611403576040517f08c379a00000000000000000000000000000000000000000000000000000000081526004016113fa9190611b55565b60405180910390fd5b50600083856114129190611e56565b9050809150509392505050565b82805461142b90611fb1565b90600052602060002090601f01602090048101928261144d5760008555611494565b82601f1061146657805160ff1916838001178555611494565b82800160010185558215611494579182015b82811115611493578251825591602001919060010190611478565b5b5090506114a19190611572565b5090565b8280546114b190611fb1565b90600052602060002090601f0160209004810192826114d35760008555611521565b82601f106114e45780548555611521565b8280016001018555821561152157600052602060002091601f016020900482015b82811115611520578254825591600101919060010190611505565b5b50905061152e9190611572565b5090565b50805461153e90611fb1565b6000825580601f10611550575061156f565b601f01602090049060005260206000209081019061156e9190611572565b5b50565b5b8082111561158b576000816000905550600101611573565b5090565b60006115a261159d84611d70565b611d3f565b9050828152602081018484840111156115ba57600080fd5b6115c5848285611f6f565b509392505050565b6000813590506115dc816120b0565b92915050565b6000813590506115f1816120c7565b92915050565b600082601f83011261160857600080fd5b813561161884826020860161158f565b91505092915050565b600081359050611630816120de565b92915050565b60006020828403121561164857600080fd5b6000611656848285016115cd565b91505092915050565b60006020828403121561167157600080fd5b600061167f848285016115e2565b91505092915050565b600080600080600060a086880312156116a057600080fd5b60006116ae888289016115cd565b95505060206116bf88828901611621565b94505060406116d088828901611621565b935050606086013567ffffffffffffffff8111156116ed57600080fd5b6116f9888289016115f7565b925050608061170a88828901611621565b9150509295509295909350565b60006020828403121561172957600080fd5b600061173784828501611621565b91505092915050565b600061174c8383611758565b60208301905092915050565b61176181611f15565b82525050565b61177081611f15565b82525050565b600061178182611db0565b61178b8185611dd3565b935061179683611da0565b8060005b838110156117c75781516117ae8882611740565b97506117b983611dc6565b92505060018101905061179a565b5085935050505092915050565b6117dd81611f39565b82525050565b60006117ee82611dbb565b6117f88185611def565b9350611808818560208601611f7e565b6118118161209f565b840191505092915050565b6000611829602e83611def565b91507f596f7520617265206e6f7420656e7469746c656420746f20657865637574652060008301527f746869732066756e6374696f6e2e0000000000000000000000000000000000006020830152604082019050919050565b600061188f601b83611def565b91507f536166654d6174683a206164646974696f6e206f766572666c6f7700000000006000830152602082019050919050565b60006118cf601e83611def565b91507f496e73756666696369656e7420636f6e74726163742062616c616e63652e00006000830152602082019050919050565b600061190f602183611def565b91507f536166654d6174683a206d756c7469706c69636174696f6e206f766572666c6f60008301527f77000000000000000000000000000000000000000000000000000000000000006020830152604082019050919050565b6000611975602d83611def565b91507f53706f6e736f727368697020616d6f756e74206d75737420626520677265617460008301527f6572207468616e207a65726f2e000000000000000000000000000000000000006020830152604082019050919050565b60006119db600083611de4565b9150600082019050919050565b60006119f5601083611def565b91507f5472616e73666572206661696c65642e000000000000000000000000000000006000830152602082019050919050565b6000611a35604d83611def565b91507f4465706f73697420616d6f756e74206d7573742062652067726561746572207460008301527f68616e207a65726f20616e64206c657373207468616e20746865206d6178696d60208301527f756d20626574206c696d69742e000000000000000000000000000000000000006040830152606082019050919050565b6000611ac1601e83611def565b91507f4e6f206163746976652062657420666f72207468697320626574746f722e00006000830152602082019050919050565b611afd81611f65565b82525050565b6000611b0e826119ce565b9150819050919050565b6000602082019050611b2d6000830184611767565b92915050565b60006020820190508181036000830152611b4d8184611776565b905092915050565b60006020820190508181036000830152611b6f81846117e3565b905092915050565b60006020820190508181036000830152611b908161181c565b9050919050565b60006020820190508181036000830152611bb081611882565b9050919050565b60006020820190508181036000830152611bd0816118c2565b9050919050565b60006020820190508181036000830152611bf081611902565b9050919050565b60006020820190508181036000830152611c1081611968565b9050919050565b60006020820190508181036000830152611c30816119e8565b9050919050565b60006020820190508181036000830152611c5081611a28565b9050919050565b60006020820190508181036000830152611c7081611ab4565b9050919050565b6000602082019050611c8c6000830184611af4565b92915050565b600060e082019050611ca7600083018a611af4565b611cb460208301896117d4565b611cc16040830188611767565b611cce6060830187611af4565b611cdb6080830186611af4565b81810360a0830152611ced81856117e3565b9050611cfc60c0830184611af4565b98975050505050505050565b6000606082019050611d1d6000830186611af4565b611d2a60208301856117d4565b611d376040830184611af4565b949350505050565b6000604051905081810181811067ffffffffffffffff82111715611d6657611d65612070565b5b8060405250919050565b600067ffffffffffffffff821115611d8b57611d8a612070565b5b601f19601f8301169050602081019050919050565b6000819050602082019050919050565b600081519050919050565b600081519050919050565b6000602082019050919050565b600082825260208201905092915050565b600081905092915050565b600082825260208201905092915050565b6000611e0b82611f65565b9150611e1683611f65565b9250827fffffffffffffffffffffffffffffffffffffffffffffffffffffffffffffffff03821115611e4b57611e4a611fe3565b5b828201905092915050565b6000611e6182611f65565b9150611e6c83611f65565b925082611e7c57611e7b612012565b5b828204905092915050565b6000611e9282611f65565b9150611e9d83611f65565b9250817fffffffffffffffffffffffffffffffffffffffffffffffffffffffffffffffff0483118215151615611ed657611ed5611fe3565b5b828202905092915050565b6000611eec82611f65565b9150611ef783611f65565b925082821015611f0a57611f09611fe3565b5b828203905092915050565b6000611f2082611f45565b9050919050565b6000611f3282611f45565b9050919050565b60008115159050919050565b600073ffffffffffffffffffffffffffffffffffffffff82169050919050565b6000819050919050565b82818337600083830152505050565b60005b83811015611f9c578082015181840152602081019050611f81565b83811115611fab576000848401525b50505050565b60006002820490506001821680611fc957607f821691505b60208210811415611fdd57611fdc612041565b5b50919050565b7f4e487b7100000000000000000000000000000000000000000000000000000000600052601160045260246000fd5b7f4e487b7100000000000000000000000000000000000000000000000000000000600052601260045260246000fd5b7f4e487b7100000000000000000000000000000000000000000000000000000000600052602260045260246000fd5b7f4e487b7100000000000000000000000000000000000000000000000000000000600052604160045260246000fd5b6000601f19601f8301169050919050565b6120b981611f15565b81146120c457600080fd5b50565b6120d081611f27565b81146120db57600080fd5b50565b6120e781611f65565b81146120f257600080fd5b5056fea2646970667358221220c8468068b575dd0632e83d4099f31f2e54c73ef3926b00da52b100260504d13064736f6c63430008000033",
    "linkReferences": {},
    "deployedLinkReferences": {}
}